
ASSIST/I Version 2.03, Copyright 1984, BDM Software.                          GRADE RUN FOR:


                                                                                                                            PAGE 1
  LOC  OBJECT CODE    ADDR1 ADDR2   STMT    SOURCE STATEMENT

000000                                1 KURZHAL1 START
                                      2 *---------------
                                      3 * KYLE KURZHAL
                                      4 * 2/18/14
                                      5 * ASSIGNMENT #1
                                      6 *---------------
                                      7 *
                                      8 *--------------------------------------------------------------------
                                      9 * INPUT: 3 GRADES (0-100) SEPARATED BY SPACE ON ONE LINE;
                                     10 *        UKNOWN NUMBER OF LINES TO BE INPUT.
                                     11 *
                                     12 * ACTIONS: THE NUMERIC GRADES WILL BE ADDED TOGETHER, AND THEN THE
                                     13 *          SUM WILL BE REPEATEDLY SUBTRACTED BY 3, ADDING A COUNT OF 1
                                     14 *          EACH TIME, UNTIL A QUOTIENT AND REMAINDER ARE LEFT.  THE
                                     15 *          QUOTIENT WILL THEN BE ROUNDED UP OR LEFT AS IS DEPENDING
                                     16 *          ON THE REMAINDER.  LASTLY, THE LETTER GRADE CORRESPONDING
                                     17 *          TO THE QUOTIENT WILL BE PRINTED.
                                     18 *
                                     19 * OUTPUT: PRINT OUT THE LETTER GRADE CORRESPONDING TO THE
                                     20 *         NUMERIC GRADE.
                                     21 *--------------------------------------------------------------------
                                     22 *
000000 90EC D00C            0000C    23          STM   14,12,12(13)              BEGINNING HOUSEKEEPING
000004 05C0                          24          BALR  12,0                      BEGINNING HOUSEKEEPING
000006                               25          USING HERE,12                   BEGINNING HOUSEKEEPING
000006 50D0 C0B6            000BC    26 HERE     ST    13,SAVEAREA+4             BEGINNING HOUSEKEEPING
00000A 41D0 C0B2            000B8    27          LA    13,SAVEAREA               BEGINNING HOUSEKEEPING
                                     28 *
                                     29 *
00000E E000 C118 0050 0011E          30          XREAD CARD,80    READ AND CHECK THE FIRST LINE INTO "CARD"
000014 1B99                          31          SR    9,9        SET REGISTER 9 AS LOOP COUNTER
                                     32 *
                                     33 *                            BEGIN MAIN LOOP
                                     34 *                            ---------------
000016 4199 0001            00001    35 TOP      LA    9,1(9)     INCREMENT LOOP COUNT BY 1
00001A 1B22                          36          SR    2,2        MAKE SURE THAT ALL USED REGISTERS ARE CLEAN
00001C 1B33                          37          SR    3,3
00001E 1B44                          38          SR    4,4
000020 5320 C118            0011E    39          XDECI 2,CARD     READ THE THREE VALUES INTO REGISTERS
000024 5331 0000            00000    40          XDECI 3,0(1)
000028 5341 0000            00000    41          XDECI 4,0(1)
                                     42 *
00002C 1A23                          43          AR    2,3        ADD ALL THREE NUMERIC GRADES TOGETHER,
00002E 1A24                          44          AR    2,4        AND STORE THE TOTAL IN REGISTER 2
                                     45 *
000030 1B33                          46          SR    3,3        RESET REGISTER 3 FOR LATER STORING QUOTIENT
                                     47 *
                                     48 *         XDECO 2,OUT      (DEBUG)
                                     49 *         XPRNT OUT,12
                                     50 *         XDECO 3,OUT
                                     51 *         XPRNT OUT,12

                                                                                                                            PAGE 2
  LOC  OBJECT CODE    ADDR1 ADDR2   STMT    SOURCE STATEMENT

                                     52 *
                                     53 *     LOOP TO FIND WHOLE NUMBER QUOTIENT (REG 3) AND REMAINDER (REG 2)
                                     54 *     ----------------------------------------------------------------
000032 5920 C106            0010C    55 AVERAGE  C     2,GRADENUM               COMPARE REG 2 WITH DIVISOR
000036 4740 C040            00046    56          BC    B'0100',EXITAVG
00003A 4133 0001            00001    57          LA    3,1(3)                   ADD 1 TO THE QUOTIENT
00003E 5B20 C106            0010C    58          S     2,GRADENUM
000042 47E0 C02C            00032    59          BC    B'1110',AVERAGE
                                     60 *
                                     61 *EXITAVG  XDECO 2,OUT      (DEBUG)
                                     62 *         XPRNT OUT,12
                                     63 *         XDECO 3,OUT
                                     64 *         XPRNT OUT,12
                                     65 *
                                     66 *                   ROUND TO APPROPRIATE WHOLE NUMBER
                                     67 *                   ---------------------------------
000046 1A22                          68 EXITAVG  AR    2,2              DOUBLE THE VALUE IN REGISTER 2
000048 5920 C106            0010C    69          C     2,GRADENUM       COMPARE THE NEW REG 2 WITH DIVISOR
00004C 4740 C04E            00054    70          BC    B'0100',NOROUND  IF REMAINDER < DIVSOR, DON'T ROUND UP
000050 4133 0001            00001    71          LA    3,1(3)
                                     72 *
                                     73 *NOROUND  XDECO 2,OUT      (DEBUG)
                                     74 *         XPRNT OUT,12
                                     75 *         XDECO 3,OUT
                                     76 *         XPRNT OUT,12
                                     77 *
                                     78 *                       PRINT APPROPRIATE GRADE
                                     79 *                       -----------------------
000054 5290 C119            0011F    80 NOROUND  XDECO 9,GRADESET+15   PRINT TEXT FOR USERS
000058 E020 C10A 001B 00110          81          XPRNT GRADESET,27
00005E E020 C17A 0004 00180          82          XPRNT =C'+ = ',4
                                     83 *
                                     84 *                         1) COMPARE THE QUOTIENT (Q) TO RUBRIC (R)
                                     85 *                         2) CHECK FOR LOWER GRADE IF Q < R
                                     86 *                         3) IF Q >= R, THEN PRINT MATCHING GRADE
                                     87 *                         4) SKIP THE REST OF THE COMPARISONS
                                     88 *
000064 5930 C0FA            00100    89          C     3,A               STEP 1
000068 4740 C070            00076    90          BC    B'0100',CHECKB    STEP 2
00006C E020 C17E 0002 00184          91          XPRNT =C'+A',2          STEP 3
000072 47A0 C09E            000A4    92          BC    B'1010',DONE      STEP 4
000076 5930 C0FE            00104    93 CHECKB   C     3,B                ...
00007A 4740 C082            00088    94          BC    B'0100',CHECKC     ...
00007E E020 C180 0002 00186          95          XPRNT =C'+B',2           ...
000084 47A0 C09E            000A4    96          BC    B'1010',DONE       ...
000088 5930 C102            00108    97 CHECKC   C     3,C
00008C 4740 C094            0009A    98          BC    B'0100',CHECKU
000090 E020 C182 0002 00188          99          XPRNT =C'+C',2
000096 47A0 C09E            000A4   100          BC    B'1010',DONE
00009A E020 C184 0002 0018A         101 CHECKU   XPRNT =C'+U',2
0000A0 47E0 C09E            000A4   102          BC    B'1110',DONE
                                    103 *
                                    104 *                       READ AND CHECK FOR NEXT LINE

                                                                                                                            PAGE 3
  LOC  OBJECT CODE    ADDR1 ADDR2   STMT    SOURCE STATEMENT

                                    105 *                       ----------------------------
0000A4 E000 C118 0050 0011E         106 DONE     XREAD CARD,80
0000AA 4780 C010            00016   107          BC    B'1000',TOP
                                    108 *
0000AE 58D0 C0B6            000BC   109          L     13,SAVEAREA+4                END HOUSEKEEPING
0000B2 98EC D00C            0000C   110          LM    14,12,12(13)                 END HOUSEKEEPING
0000B6 07FE                         111          BR    14                           END HOUSEKEEPING
0000B8                              112 SAVEAREA DS    18F                          END HOUSEKEEPING
                                    113 *
                                    114 *
                                    115 *                      DECLARING STORAGE AND CONSTANTS
000100 0000005D                     116 A        DC    F'93'
000104 00000054                     117 B        DC    F'84'
000108 0000004B                     118 C        DC    F'75'
00010C 00000003                     119 GRADENUM DC    F'3'
000110 F040404040C7D9C1             120 GRADESET DC    C'0    GRADE SET'
00011E                              121 CARD     DS    CL80
00016E                              122 OUT      DS    CL12
                                    123 *
                                    124          END   KURZHAL1
000180 4E407E40                                  =C'+ = '
000184 4EC1                                      =C'+A'
000186 4EC2                                      =C'+B'
000188 4EC3                                      =C'+C'
00018A 4EE4                                      =C'+U'

***   0 STATEMENTS FLAGGED - 0 WARNINGS, 0 ERRORS

*** PROGRAM EXECUTION BEGINNING -
ANY OUTPUT BEFORE EXECUTION COMPLETE MESSAGE IS PRODUCED BY USER PROGRAM ***


    GRADE SET            1 = B

    GRADE SET            2 = U

    GRADE SET            3 = C

    GRADE SET6           4 = U

    GRADE SET            5 = A

*** EXECUTION COMPLETED ***
