
ASSIST/I Version 2.03, Copyright 1984, BDM Software.                          GRADE RUN FOR:


                                                                                                                            PAGE 1
  LOC  OBJECT CODE    ADDR1 ADDR2   STMT    SOURCE STATEMENT

000000                                1 KURZHAL5 START
                                      2 *----------------
                                      3 * KYLE KURZHAL  |
                                      4 * 4/4/14        |
                                      5 * ASSIGNMENT #5 |
                                      6 *--------------------------------------------------------------------
                                      7 * INPUT: UNKNOWN SIZE FILE.  DATA INCLUDES FIRST, MIDDLE, AND LAST
                                      8 *        NAMES; STREET ADDRESS; CITY; STATE (2 LETTERS); ZIP CODE
                                      9 *        (5 DIGITS).
                                     10 *
                                     11 * OUTPUT: PRINT (IN FOLLOWING FORMAT):
                                     12 *         LAST NAME, (FIRST NAME) (MIDDLE INITIAL).
                                     13 *         STREET ADDRESS
                                     14 *         CITY, STATE  ZIP
                                     15 *
                                     16 * ACTIONS: GET/CHECK THE FIRST NAME IN INPUT AND PRINT; GET THE
                                     17 *          ADDRESS AND PRINT; GET THE CITY, STATE, AND ZIP AND PRINT;
                                     18 *          CHECK FOR NEXT NAME AND PRINT.
                                     19 *--------------------------------------------------------------------
                                     20 *             | REG |       | PURPOSE |
                                     21 *             *******       ***********
                                     22 *                 9   ====> GLOBAL POINTER FOR INFOLINE+5.
                                     23 *                10   ====> GLOBAL POINTER FOR CARD.
                                     24 *                11   ====> RETURN FROM SUBROUTINES.
                                     25 *--------------------------------------------------------------------
                                     26 *
                                     27 *                         BEGINNING HOUSEKEEPING
                                     28 *                        ------------------------
000000 90EC D00C            0000C    29          STM   14,12,12(13)
000004 05C0                          30          BALR  12,0
000006                               31          USING HERE,12
000006 50D0 C036            0003C    32 HERE     ST    13,SAVEAREA+4
00000A 41D0 C032            00038    33          LA    13,SAVEAREA
                                     34 *
                                     35 *                            MAIN PROGRAM
                                     36 *                           --------------
00000E 41A0 C07A            00080    37          LA    10,CARD          SET UP GLOBAL CARD POINTER
000012 4190 C0CF            000D5    38          LA    9,INFOLINE+5     SET UP GLOBAL INFOLINE POINTER
000016 45B0 C0CC            000D2    39          BAL   11,GETNAMES      GET/CHECK FIRST LINE OF INFO
00001A 4740 C024            0002A    40          BC    B'0100',ENDMAINP
00001E 45B0 C154            0015A    41 MAINLOOP BAL   11,GTADRESS        GET AND PRINT ADDRESS
000022 45B0 C16C            00172    42          BAL   11,CTYSTZIP        GET AND PRINT CITY, STATE ZIP
000026 45B0 C0CC            000D2    43          BAL   11,GETNAMES        GET THE NEXT NAME IF AVAILABLE
00002A 4780 C018            0001E    44 ENDMAINP BC    B'1000',MAINLOOP   END MAIN PROGRAM
                                     45 *
                                     46 *                          END HOUSEKEEPING
                                     47 *                         ------------------
00002E 58D0 C036            0003C    48          L     13,SAVEAREA+4
000032 98EC D00C            0000C    49          LM    14,12,12(13)
000036 07FE                          50          BR    14
000038                               51 SAVEAREA DS    18F

                                                                                                                            PAGE 2
  LOC  OBJECT CODE    ADDR1 ADDR2   STMT    SOURCE STATEMENT

                                     52 *
                                     53 *                    DECLARE STORAGE AND CONSTANTS
                                     54 *                   -------------------------------
000080                               55 CARD     DS    CL80
0000D0 60                            56 INFOLINE DC    C'-'

GETNAMES SUBROUTINE                                                                                                         PAGE 3
  LOC  OBJECT CODE    ADDR1 ADDR2   STMT    SOURCE STATEMENT

                                     58 *                         GETNAMES SUBROUTINE
                                     59 *--------------------------------------------------------------------
                                     60 * INPUT: READ IN THE NAME LINE.
                                     61 *
                                     62 * OUTPUT: PRINT OUT THE FORMATTED NAME LINE:   LAST, FIRST MID.
                                     63 *
                                     64 * ACTIONS: READ FIRST LINE OF INPUT FOR EACH RECORD, FIND THE
                                     65 *          BEGINNING OF LAST NAME, STORE LAST NAME',' IN INFOLINE
                                     66 *          (OUTPUT), STORE THE FIRST NAME IN INFOLINE, STORE THE
                                     67 *          FIRST LETTER OF MIDDLE NAME'.' IN INFOLINE.  PRINT
                                     68 *          INFOLINE.
                                     69 *--------------------------------------------------------------------
                                     70 *             | REG |       | PURPOSE |
                                     71 *             *******       ***********
                                     72 *                 2   ====> RETURN POINTER FROM FRSTMNAM SUBROUTINE.
                                     73 *                 3   ====> INFOLINE POINTER/ITERATOR.
                                     74 *                 6   ====> FINDING LAST NAME ITERATOR; FRSTMNAM
                                     75 *                           SUBROUTINE POINTER.
                                     76 *                 7   ====> RETURN POINTER FOR GETLSTNM, COPYNAME
                                     77 *                           SUBROUTINE.
                                     78 *                 9   ====> GLOBAL POINTER FOR INFOLINE+5.
                                     79 *                10   ====> GLOBAL POINTER FOR CARD.
                                     80 *                11   ====> RETURN FROM GETNAMES SUBROUTINE.
                                     81 *--------------------------------------------------------------------
0000D2 E000 C07A 0050 00080          82 GETNAMES XREAD CARD,80
0000D8 4740 C104            0010A    83          BC    B'0100',ENDGTNMS   CHECK NAME LINE, END PRGM IF EMPTY
0000DC 186A                          84          LR    6,10               SET CARD ITERATOR
0000DE 1839                          85          LR    3,9                SET CARD
0000E0 9260 C0CA      000D0          86          MVI   INFOLINE,C'-'      SET CARRIAGE RETURN FOR EACH RECORD
0000E4 9240 3000      00000          87          MVI   0(3),C' '          CASCADE BLANKS FOR THE INFO LINE
0000E8 D23A 3001 3000 00001 00000    88          MVC   1(59,3),0(3)
0000EE 4180 C106            0010C    89          LA    8,GETLSTNM         SET POINTER TO GETLSTNM SUBROUTINE
0000F2 0578                          90          BALR  7,8                CALL GETLSTNM SUBROUTINE
0000F4 4166 0001            00001    91          LA    6,1(6)             MOVE POINTER TO FRONT OF LAST NAME
0000F8 4180 C124            0012A    92          LA    8,COPYNAME         SET POINTER TO COPYNAME SUBROUTINE
0000FC 0578                          93          BALR  7,8                CALL COPYNAME SUBROUTINE
0000FE 4160 C13C            00142    94          LA    6,FRSTMNAM         SET POINTER TO FRSTMNAM SUBROUTINE
000102 0526                          95          BALR  2,6                CALL FRSTMNAM SUBROUTINE
000104 E020 C0CA 0041 000D0          96          XPRNT INFOLINE,65        PRINT THE NAME LINE
00010A 07FB                          97 ENDGTNMS BR    11                 END SUBROUTINE

GETLSTNM SUBROUTINE                                                                                                         PAGE 4
  LOC  OBJECT CODE    ADDR1 ADDR2   STMT    SOURCE STATEMENT

                                     99 *                        GETLSTNM SUBROUTINE
                                    100 *--------------------------------------------------------------------
                                    101 * INPUT: CARD AND ITS ITERATOR.
                                    102 *
                                    103 * OUTPUT: CARD ITERATOR IS PLACED BEFORE THE LAST NAME.
                                    104 *
                                    105 * ACTIONS: ITERATE THROUGH CARD UNTIL TWO BLANKS ARE FOUND, LEAVE
                                    106 *          ITERATOR AT BLANK BEFORE BEGINNING OF LAST NAME.
                                    107 *--------------------------------------------------------------------
                                    108 *             | REG |       | PURPOSE |
                                    109 *             *******       ***********
                                    110 *                 4   ====> POINTER TO FNDBLNK1/FNDBLNK2 LOOP TOP.
                                    111 *                 6   ====> ITERATOR FOR FINDING LAST NAME.
                                    112 *                 7   ====> RETURN FROM GETLSTNM SUBROUTINE.
                                    113 *--------------------------------------------------------------------
00010C 0540                         114 GETLSTNM BALR  4,0
00010E 9540 6001      00001         115 FNDBLNK1 CLI   1(6),C' '            COMPARE NEXT CHAR TO BLANK
000112 4166 0001            00001   116          LA    6,1(6)               INCREMENT CARD ITERATOR
000116 4764 0000            00000   117          BC    B'0110',0(4)         CHECK IF NEXT CHAR WAS BLANK
00011A 0540                         118          BALR  4,0
00011C 9540 6001      00001         119 FNDBLNK2 CLI   1(6),C' '            REPEAT PREVIOUS STEPS
000120 4166 0001            00001   120          LA    6,1(6)
000124 4764 0000            00000   121          BC    B'0110',0(4)
000128 07F7                         122          BR    7                    RETURN FROM WHEN 2 BLANKS FOUND

COPYNAME SUBROUTINE                                                                                                         PAGE 5
  LOC  OBJECT CODE    ADDR1 ADDR2   STMT    SOURCE STATEMENT

                                    124 *                          COPYNAME SUBROUTINE
                                    125 *--------------------------------------------------------------------
                                    126 * INPUT: CARD AND INFOLINE FOR MANIPULATION.
                                    127 *
                                    128 * OUTPUT: COPY OF CARD FROM STARTING POSITION TO BLANK INTO INFOLINE.
                                    129 *
                                    130 * ACTIONS: COPY ONE CHAR AT A TIME FROM CARD TO INFOLINE, CONTINUE
                                    131 *          UNTIL A BLANK IS FOUND.
                                    132 *--------------------------------------------------------------------
                                    133 *             | REG |       | PURPOSE |
                                    134 *             *******       ***********
                                    135 *                 3   ====> INFOLINE POINTER/ITERATOR.
                                    136 *                 6   ====> ITERATOR FOR FINDING LAST NAME.
                                    137 *                 7   ====> RETURN FROM COPYNAME SUBROUTINE.
                                    138 *                 8   ====> POINTER TO COPYNAME LOOP TOP.
                                    139 *--------------------------------------------------------------------
00012A D200 3000 6000 00000 00000   140 COPYNAME MVC   0(1,3),0(6)    COPY CHAR FROM CARD TO INFOLINE
000130 9540 6001      00001         141          CLI   1(6),C' '      COMPARE NEXT CARD POSITION TO BLANK
000134 4166 0001            00001   142          LA    6,1(6)         INCREMENT CARD ITERATOR POSITION
000138 4133 0001            00001   143          LA    3,1(3)         INCREMENT INFOLINE ITERATOR POSITION
00013C 4768 0000            00000   144          BC    B'0110',0(8)   CHECK FOR BLANK, CONTINUE OR END LOOP
000140 07F7                         145          BR    7              RETURN FROM COPYNAME SUBROUTINE

FRSTMNAM SUBROUTINE                                                                                                         PAGE 6
  LOC  OBJECT CODE    ADDR1 ADDR2   STMT    SOURCE STATEMENT

                                    147 *                         FRSTMNAM SUBROUTINE
                                    148 *--------------------------------------------------------------------
                                    149 * INPUT: READ IN THE NAME LINE.
                                    150 *
                                    151 * OUTPUT: PRINT OUT THE FORMATTED NAME LINE:   LAST, FIRST MID.
                                    152 *
                                    153 * ACTIONS: READ FIRST LINE OF INPUT FOR EACH RECORD, FIND THE
                                    154 *          BEGINNING OF LAST NAME, STORE LAST NAME',' IN INFOLINE
                                    155 *          (OUTPUT), STORE THE FIRST NAME IN INFOLINE, STORE THE
                                    156 *          FIRST LETTER OF MIDDLE NAME'.' IN INFOLINE.  PRINT
                                    157 *          INFOLINE.
                                    158 *--------------------------------------------------------------------
                                    159 *             | REG |       | PURPOSE |
                                    160 *             *******       ***********
                                    161 *                 2   ====> RETURN FROM GTADRESS SUBROUTINE.
                                    162 *                 3   ====> INFOLINE POINTER/ITERATOR.
                                    163 *                 6   ====> ITERATOR FOR FINDING FIRST NAME.
                                    164 *                 7   ====> RETURN POINTER FOR COPYNAME SUBROUTINE.
                                    165 *                 8   ====> POINTER TO COPYNAME SUBROUTINE.
                                    166 *                10   ====> GLOBAL POINTER FOR CARD.
                                    167 *--------------------------------------------------------------------
000142 926B 3000      00000         168 FRSTMNAM MVI   0(3),C','      ADD A ',' AFTER LAST NAME
000146 4133 0002            00002   169          LA    3,2(3)         LEAVE A BLANK SPACE AFTER ','
00014A 186A                         170          LR    6,10           SET CARD ITERATOR
00014C 0578                         171          BALR  7,8            CALL COPYNAME SUBROUTINE
00014E D200 3001 6001 00001 00001   172          MVC   1(1,3),1(6)    GET THE MIDDLE INITIAL
000154 924B 3002      00002         173          MVI   2(3),C'.'      ADD '.' AFTER MIDDLE INITIAL
000158 07F2                         174          BR    2              RETURN FROM GTADRESS SUBROUTINE

GTADRESS SUBROUTINE                                                                                                         PAGE 7
  LOC  OBJECT CODE    ADDR1 ADDR2   STMT    SOURCE STATEMENT

                                    176 *                          GTADRESS SUBROUTINE
                                    177 *--------------------------------------------------------------------
                                    178 * INPUT: READ IN THE ADDRESS.
                                    179 *
                                    180 * OUTPUT: PRINT OUT THE ADDRESS.
                                    181 *
                                    182 * ACTIONS: READ IN THE ADDRESS, FORMAT THE CARRIAGE CONTROL FOR THE
                                    183 *          FOLLOWING LINES OF INFO, COPY ADDRESS INTO INFOLINE, PRINT
                                    184 *          INFOLINE.
                                    185 *--------------------------------------------------------------------
                                    186 *             | REG |       | PURPOSE |
                                    187 *             *******       ***********
                                    188 *                 9   ====> GLOBAL POINTER FOR INFOLINE+5.
                                    189 *                10   ====> GLOBAL POINTER FOR CARD.
                                    190 *                11   ====> RETURN FROM SUBROUTINE.
                                    191 *--------------------------------------------------------------------
00015A E000 C07A 0050 00080         192 GTADRESS XREAD CARD,80          GET THE ADDRESS
000160 9240 C0CA      000D0         193          MVI   INFOLINE,C' '    FORMAT THE CARRIAGE CONTROL
000164 D23A 9000 A000 00000 00000   194          MVC   0(59,9),0(10)    COPY THE ADDRESS
00016A E020 C0CA 0041 000D0         195          XPRNT INFOLINE,65      PRINT THE ADDRESS
000170 07FB                         196          BR    11

CTYSTZIP SUBROUTINE                                                                                                         PAGE 8
  LOC  OBJECT CODE    ADDR1 ADDR2   STMT    SOURCE STATEMENT

                                    198 *                          CTYSTZIP SUBROUTINE
                                    199 *--------------------------------------------------------------------
                                    200 * INPUT: READ IN CITY, STATE, AND ZIP CODE LINES.
                                    201 *
                                    202 * OUTPUT:    PRINT IN FORMAT:  CITY, STATE  ZIP
                                    203 *
                                    204 * ACTIONS: READ CARD BACKWARD TO FIND THE END OF CITY, STORE CITY','
                                    205 *          IN INFOLINE, STORE STATE IN INFOLINE, STORE ZIP IN
                                    206 *          INFOLINE, AND PRINT FORMATTED INFOLINE.
                                    207 *--------------------------------------------------------------------
                                    208 *             | REG |       | PURPOSE |
                                    209 *             *******       ***********
                                    210 *                 2   ====> CARD POINTER/ITERATOR.
                                    211 *                 3   ====> INFOLINE POINTER/ITERATOR.
                                    212 *                 4   ====> STEP COUNT FOR STORECTY LOOP.
                                    213 *                 5   ====> FINDCITY LOOP ITERATOR; FINDS END OF CITY.
                                    214 *                 7   ====> BRANCH ADDRESS FOR ENDOFCTY LOOP.
                                    215 *                 8   ====> BRANCH ADDRESS FOR STORECTY LOOP.
                                    216 *                 9   ====> GLOBAL POINTER FOR INFOLINE+5.
                                    217 *                10   ====> GLOBAL POINTER FOR CARD.
                                    218 *                11   ====> RETURN FROM SUBROUTINE.
                                    219 *--------------------------------------------------------------------
000172 182A                         220 CTYSTZIP LR    2,10          PREPARE CARD/INFOLINE ITERATORS
000174 1839                         221          LR    3,9
000176 9240 3000      00000         222          MVI   0(3),C' '     CASCADE THE BLANKS FOR INFOLINE
00017A D23A 3001 3000 00001 00000   223          MVC   1(59,3),0(3)
000180 E000 C07A 0050 00080         224          XREAD CARD,80        READ IN THE CITY
000186 4140 0001            00001   225          LA    4,1            SET FINDCITY LOOP STEP CNT; FINDCITY SUB
00018A 4150 C0CA            000D0   226          LA    5,INFOLINE     SET BACKWARD STEP CARD ITERATOR
00018E 4160 C1B2            001B8   227          LA    6,GETCITY      POINT TO GETCITY SUBROUTINE
000192 0576                         228          BALR  7,6            CALL GETCITY SUBROUTINE
000194 926B 3000      00000         229          MVI   0(3),C','      ADD A ',' TO THE CURRENT END OF INFOLINE
000198 E000 C07A 0050 00080         230          XREAD CARD,80        READ IN THE STATE
00019E D201 3002 A000 00002 00000   231          MVC   2(2,3),0(10)   COPY THE STATE TO INFOLINE
0001A4 E000 C07A 0050 00080         232          XREAD CARD,80        READ IN THE ZIP CODE
0001AA D204 3006 A000 00006 00000   233          MVC   6(5,3),0(10)   COPY THE ZIP CODE TO INFOLINE
0001B0 E020 C0CA 0041 000D0         234          XPRNT INFOLINE,65    PRINT THE INFOLINE
0001B6 07FB                         235          BR    11             END SUBROUTINE
                                    236 *                           GETCITY SUBROUTINE
                                    237 *--------------------------------------------------------------------
                                    238 * INPUT: CITY LINE IN CARD.
                                    239 *
                                    240 * OUTPUT: CITY IS STORED FOR INFOLINE OUTPUT.
                                    241 *
                                    242 * ACTIONS: READ CARD BACKWARD TO FIND THE END OF CITY, STORE CITY
                                    243 *          IN INFOLINE.
                                    244 *--------------------------------------------------------------------
                                    245 *             | REG |       | PURPOSE |
                                    246 *             *******       ***********
                                    247 *                 2   ====> CARD POINTER/ITERATOR.
                                    248 *                 3   ====> INFOLINE POINTER/ITERATOR.
                                    249 *                 4   ====> STEP COUNT FOR STORECTY LOOP.
                                    250 *                 5   ====> FINDCITY LOOP ITERATOR; TERMINAL VALUE

CTYSTZIP SUBROUTINE                                                                                                         PAGE 9
  LOC  OBJECT CODE    ADDR1 ADDR2   STMT    SOURCE STATEMENT

                                    251 *                           FOR STORECTY LOOP.
                                    252 *                 7   ====> RETURN FROM GETCITY SUBROUTINE.
                                    253 *                 8   ====> FINDCITY/STORECTY LOOP TOP POINTER.
                                    254 *--------------------------------------------------------------------
0001B8 0580                         255 GETCITY  BALR  8,0
0001BA 0650                         256 FINDCITY BCTR  5,0            MOVE BACKWARD 1 CHAR IN CARD
0001BC 9540 5000      00000         257          CLI   0(5),C' '      COMPARE CURRENT POSITION TO A BLANK
0001C0 4788 0000            00000   258          BC    B'1000',0(8)   END IF THERE IS NO BLANK
0001C4 0580                         259          BALR  8,0
0001C6 D200 3000 2000 00000 00000   260 STORECTY MVC   0(1,3),0(2)    COPY CURRENT CHAR FROM CARD TO INFOLINE
0001CC 4133 0001            00001   261          LA    3,1(3)         INCREMENT POSITION IN INFOLINE
0001D0 8724 8000            00000   262          BXLE  2,4,0(8)       INCREMENT CARD POSITION, CHECK CITY END
0001D4 07F7                         263          BR    7              RETURN FROM GETCITY SUBROUTINE
                                    264          END   KURZHAL5

***   0 STATEMENTS FLAGGED - 0 WARNINGS, 0 ERRORS

*** PROGRAM EXECUTION BEGINNING -
ANY OUTPUT BEFORE EXECUTION COMPLETE MESSAGE IS PRODUCED BY USER PROGRAM ***


*** EXECUTION COMPLETED ***
PSW AT ABEND:  FF000005 8F0000F2      COMPLETION CODE: 0C5 ADDRESSING

** TRACE OF INSTRUCTIONS JUST BEFORE TERMINATION **
===> PSW bits shown are those before corresponding instruction decoded.
===> IM = PSW bits 32-39 (ILC,CC,MASK) before instruction executed at LOCATION.

          IM    LOCATION    INSTRUCTION
          ==    ========    ===============
          8F     000012     4190 C0CF
          8F     000016     45B0 C0CC
          8F     0000D2     E000 C07A 0050
          CF     0000D8     4740 C104
          8F     0000DC     186A
          4F     0000DE     1839
          4F     0000E0     9260 C0CA
          8F     0000E4     9240 3000
          8F     0000E8     D23A 3001 3000
          CF     0000EE     4040 4040    <-- Last instruction executed.


** TRACE OF LAST 10 BRANCH INSTRUCTIONS EXECUTED **
===> PSW bits shown are those before corresponding instruction decoded.
===> IM = PSW bits 32-39 (ILC,CC,MASK) before instruction executed at LOCATION.

          IM    LOCATION    INSTRUCTION
          ==    ========    ===============
          8F     000004     05C0
          8F     000016     45B0 C0CC
          CF     0000D8     4040 4040


R0-7 :F4F4F4F4 F4F4F4F4 F4F4F4F4 000000D5 F4F4F4F4 F4F4F4F4 00000080 F4F4F4F4
R8-15:F4F4F4F4 000000D5 00000080 8F00001A 4F000006 00000038 00000220 00000000


USER STORAGE:   CORE ADDRESSES SPECIFIED - 000000 to 000A8C

000000      47ECD00C   05C050D0   C03641D0   C03241A0      *..}..{&}{..}{...*
000010      C07A4190   C0CF45B0   C0CC4740   C02445B0      *{:..{...{.. {...*
000020      C15445B0   C16C45B0   C0CC4780   C01858D0      *A...A%..{...{..}*
000030      C03698EC   D00C07FE   F5F5F5F5   000001D8      *{.q.}...5555...Q*
000040      F5F5F5F5   F5F5F5F5   F5F5F5F5   F5F5F5F5      *5555555555555555*
            LINES:   000040 - 000070    ARE IDENTICAL
000080      D2E8D3C5   40C1E4E2   E3C9D540   D2E4D9E9      *KYLE AUSTIN KURZ*
000090      C8C1D340   40404040   40404040   40404040      *HAL             *
0000A0      40404040   40404040   40404040   40404040      *                *
            LINES:   0000A0 - 0000C0    ARE IDENTICAL
0000D0      60F5E000   C0404040   40404040   40404040      *-5\.{           *
0000E0      40404040   40404040   40404040   40404040      *                *
            LINES:   0000E0 - 000100    ARE IDENTICAL
000110      40014166   00014764   00000540   95406001      * .......... n -.*
000120      41660001   47640000   07F7D200   30006000      *.........7K...-.*
000130      95406001   41660001   41330001   47680000      *n -.............*
000140      07F7926B   30004133   0002186A   0578D200      *.7k,.......|..K.*
000150      30016001   924B3002   07F2E000   C07A0050      *..-.k....2\.{:.&*
000160      9240C0CA   D23A9000   A000E020   C0CA0041      *k {.K.....\.{...*
000170      07FB182A   18399240   3000D23A   30013000      *......k ..K.....*
000180      E000C07A   00504140   00014150   C0CA4160      *\.{:.&. ...&{..-*
000190      C1B20576   926B3000   E000C07A   0050D201      *A...k,..\.{:.&K.*
0001A0      3002A000   E000C07A   0050D204   3006A000      *....\.{:.&K.....*
0001B0      E020C0CA   004107FB   05800650   95405000      *\.{........&n &.*
0001C0      47880000   0580D200   30002000   41330001      *.h....K.........*
0001D0      87248000   07F7F5F5   F5F5F5F5   F5F5F5F5      *g....75555555555*
0001E0      F5F5F5F5   00000220   00000000   F4F4F4F4      *5555........4444*
0001F0      F4F4F4F4   F4F4F4F4   F4F4F4F4   F4F4F4F4      *4444444444444444*
            LINES:   0001F0 - 000210    ARE IDENTICAL
000220      F5F5F5F5   F5F5F5F5   F5F5F5F5   F5F5F5F5      *5555555555555555*
            LINES:   000220 - 000A70    ARE IDENTICAL

                 ***  END OF USER MEMORY  ***